:020000040000fa
:10000000f07f0020e5cc0000236f00001376000095
:1000100000000000000000000000000000000000e0
:10002000000000000000000000000000c385000088
:100030000000000000000000c3850000c385000030
:10004000c3850000c3850000c3850000c385000090
:10005000c3850000c3850000c3850000c385000080
:10006000c385000069670000c3850000fd520000e1
:1000700065c70000c3850000c3850000c38500007c
:10008000c3850000c385000085e10000c385000032
:10009000c3850000c3850000c3850000c385000040
:1000a000c3850000c3850000c3850000c385000030
:020000040000fa
:1000b000f8b5c046f8bc08bc9e467047c5cc0000e9
:1000c000f8b5c046f8bc08bc9e4670479dcc000001
:020000040000fa
:0800d000108400000100000093
:020000040000fa
:1000d800f0b5c64600b582b00400a4264643d94d03
:1000e80075192b0074331b78012b0ed0a4226243a0
:1000f800d44b9b185e6d65331a78192a01d901f023
:10010800eef99300d049cb589f462b002a00743251
:100118000021117063331a78042a00d941e1930051
:10012800ca4ad3589f46a4234343c64ef618b36d14
:1001380098b2032107f08efcf065431c00d130e132
:100148002a00c3490df022fca4226243bd4b9b1830
:10015800633301221a7024e1a4224243b94b9b184d
:10016800d96b28000df07eff002800d119e1a422e8
:100178006243b44b9b18633302221a7011e1a42224
:100188004243b04b9b1822331b78002b00d108e167
:10019800a4224243ab4b9b181a0022320021117053
:1001a800633303221a70fce0a4224243a54b9b1838
:1001b80066331a78072a00d9afe19300a54ad358c5
:1001c8009f46a42242439f4b9b181a006932012183
:1001d8001170603300229a569f4928000ef00cf9de
:1001e800002807d0a4226243964b9b18663301224d
:1001f8001a700de0a4226243924b9b1869330022c7
:100208001a7005e0012128000ef054ff002827d1bc
:10021800a42262438b4b9b181a00443200211170b0
:1002280045331b78002b00d1a9e1a4226243854bfa
:100238009b18453300221a70a4226243814b9b18f5
:100248001a00633201211170463300221a706e6d54
:10025800002e00d18be1a42767437a4bdf1976e1a2
:10026800a4226243774b9b181a006932012111704e
:10027800d96a0a2228000cf0dffb0028c8d0a42283
:100288006243704b9b18663303221a70c0e7a4229e
:1002980042436c4b9b1862331b78012b19d0a42264
:1002a8004243684b9b1862331b78022bb0d1654ed2
:1002b800b6183300603300229a56674928000ef0ba
:1002c8009bf83300663301221a70693600233370b5
:1002d8009ee75c4eb6183300603300229a565e499a
:1002e80028000ef089f866360223337090e7002262
:1002f800002101f033fda4226243524b9b1867335f
:100308001b780c2b0dd00b2b82d1a42262434d4bb2
:100318009b181a00693200211170663301221a7085
:1003280076e7a4226243474b9b181a0069320021e2
:1003380011706c331b78012b07d0a4226243414b08
:100348009b18663301221a7062e7a42262433d4b70
:100358009b18663308221a7007e0a4224243394bdf
:100368009b1869331b78022b23d1a4226243354b97
:100378009b181a0044320121117045331b78012b58
:1003880000d1fce0a42262432e4b9b181a00453290
:1003980001211170633304221a70002128000ef025
:1003a80089fea4226243274b9b18743300221a70db
:1003b8009ce6012128000ef07dfe0028d5d0a4225d
:1003c8006243204b9b181a00693201211170663371
:1003d80005221a70c9e70022042101f0bffca422fb
:1003e8006243184b9b1867331b780c2b0dd00b2bd3
:1003f800bbd1a4226243134b9b181a006932002117
:100408001170663301221a7002e7a42262430d4b71
:100418009b186c331b78002b07d1a4226243094b2d
:100428009b18663306221a709fe7a4226243054b85
:100438009b181a00693200211170663301221a7064
:10044800e6e6c04644120020647e0000cc7e000030
:1004580005d50000e07e0000801a0600810009181a
:100468008900c64b5918142228000df07efd00287b
:1004780007d0a4226243c24b9b18663307221a7026
:1004880073e7a4226243be4b9b181a00693200210d
:100498001170663301221a70bae6a4224243b84b9f
:1004a8009b1862331b78012b14d0a4224243b44b0f
:1004b8009b1862331b78022b00d056e7a4224243d4
:1004c800af4b9b181a006932002111706633012264
:1004d8001a709de6a4224243a94b9b181a00693260
:1004e80000211170810009188900a44a5118586b1d
:1004f80013220ef09ff9002807d1a4226243a04bd3
:100508009b18663304221a702fe7a42262439c4b7f
:100518009b18663301221a707ae6a4224243984b4c
:100528009b181a0044320021117045331b78002ba8
:1005380025d0a4224243924b9b18453300221a70bf
:100548007ae60023336233706e6d002e0fd0336a63
:100558006b6533791b017a68944663445a68904600
:10056800002aeed09a68f1680120c047e9e7a42282
:100578006243834b9b18663300221a700de7a4224e
:1005880062437f4b9b1869331b78002b00d008e728
:10059800002128000ef08efda4226243784b9b18a0
:1005a800633301221a70fce6a4224243744b9b1861
:1005b80068331a78172a00d9f6e09300714ad3589d
:1005c8009f46a42242436e4b9b1800221a641900ce
:1005d80048310a70683301321a70e2e6a4224243b5
:1005e800674b9b18d96a0a2228000cf025fa0028c4
:1005f80007d0a4226243624b9b18683303221a7007
:10060800cfe6a42262435e4b9b18683317221a7008
:1006180059e3a42242435a4b9b1862331b78012b9f
:1006280016d0a4224243564b9b1862331b78022be8
:1006380000d0b6e6524eb6183300603300229a5600
:10064800514928000df0d8fe6836172333703ae375
:100658004b4eb6183300603300229a564a49280098
:100668000df0cafe6836042333709ae60022002192
:1006780001f074fba4226243414b9b1867331b783b
:100688000c2b0ad00b2b00d08ee0a42262433c4beb
:100698009b18683317221a7015e3a4226243384b5b
:1006a8009b186c331b78012b07d0a4226243344b70
:1006b8009b18683301221a7073e6a4226243304bf8
:1006c8009b18683305221a706be6d5225200022166
:1006d80001f044fba4226243294b9b1867331b7823
:1006e8000c2b09d00b2b5fd1a4226243244b9b18ff
:1006f800683317221a70e6e2a4226243204b9b1843
:100708001b6f1b051b0dd521490000228b420ad007
:10071800a42161431a4b5b18190023310a7068330e
:1007280006221a703de6a4326243154b9b186833c3
:100738001b799b0801229a43eae70022102101f065
:100748000dfba42262430e4b9b1867331b780c2bbe
:1007580009d00b2b28d1a4226243094b9b1868337c
:1007680017221a70afe2a4226243054b9b181a00a5
:100778006832072111700022da7412e6e8180020a6
:1007880044120020007f0000801a060000220f217a
:1007980001f0e4faa4226243d44b9b1867331b7818
:1007a8000c2b3ad00b2b40d0a4226243cf4b9b1882
:1007b80068331b78162b00d081e2cc48a42363430e
:1007c800c3181a004732002111701a6c1f008c37a9
:1007d80080218900396004373a600437396004376a
:1007e8003a60043739601900a0310a601a0078327b
:1007f800182111700122da67190080310a6004316a
:100808000a6004318c3636180e6042390a7020317d
:100818000420087063331a70c3e5a4226243b34b03
:100828009b18683308221a70bbe599336343af4fae
:10083800ff183b00683317221a7028000ef051f990
:100848000023fb74b0e7a4234343a84fff183b00e1
:1008580023331a789207122101f080fa67373b7820
:100868000c2b0ed00b2b9fd128000ef03af9a422a6
:1008780062439e4b9b180022da74683317321a7051
:1008880021e2a4226243994b9b186c331b78002bfe
:1008980019d0a4226243954b9b18db7c002b1ed0f9
:1008a800a4226243914b9b1821331b78002b2cd038
:1008b800a42262438d4b9b181a00683217211170cd
:1008c8000022da74ffe1894fbf183b006833092220
:1008d8001a7028000ef005f90023fb7464e7fa216a
:1008e800890028000df0e6fb002807d1a422624306
:1008f8007e4b9b18683317221a70e4e1a4226243e6
:100908007a4b9b180122da74cae7a4226243774b18
:100918009b18683307221a7043e50022102101f062
:100928001dfaa4226243714b9b1867331b780c2b6a
:100938000ad00b2b00d037e7a42262436b4b9b18dd
:10094800683317221a70bee1a4226243674b9b18d2
:10095800190048311a6f5200d20f0a7068330a2200
:100968001a701ee5a4234343604ef6183300603323
:1009780000229a56b16b28000df03efd0a22b16a9a
:1009880028000df0f2fa68360b23337009e5a4222b
:100998004243564b9b1862331b78012b10d0a4227c
:1009a8004243524b9b1862331b78022b00d0f8e469
:1009b800a42242434d4b9b18683317221a7082e1d8
:1009c800012128000ef076fb002800d1ece6a422d5
:1009d8006243464b9b1868330c221a70e1e40022ec
:1009e800032101f0bbf9a4226243404b9b186733f3
:1009f8001b780c2b0ad00b2b00d0d5e6a42262431f
:100a08003a4b9b18683317221a705ce1a4226243a0
:100a1800364b9b186c331b78002b07d1a4226243fa
:100a2800324b9b1868330d221a70bae4a422624331
:100a38002e4b9b18683317221a7044e1a4224243b4
:100a48002a4b9b18196b142228000df08efa0028e7
:100a580007d0a4226243254b9b18683310221a70d2
:100a68009fe4a4226243214b9b18683317221a7013
:100a780029e1a42242431d4b9b1862331b78012baa
:100a880010d0a4224243194b9b1862331b78022bc7
:100a980000d086e4a4224243144b9b1868331722e3
:100aa8001a7010e1a4224243104b9b181a6b13785a
:100ab800fe3b59424b41d21813783f218b4317d044
:100ac800d3791b04fc2189030b40117a09020b43db
:100ad800527a134301339b02a4216143034a5218fb
:100ae80013646832112313705be4c046441200207b
:100af8009079032318400002d37918438000517a73
:100b0800490006231940137a9b0903430133907a5d
:100b1800c009014302318b40190052790f231a4052
:100b2800093a80235b0293401b0c4b43d4e7002215
:100b3800042101f013f9a4226243e04b9b186733a8
:100b48001b780c2b0ad00b2b00d02de6a422624375
:100b5800da4b9b18683317221a70b4e0a422624358
:100b6800d64b9b186c331b78002b07d1a422624309
:100b7800d24b9b18683312221a7012e4a4226243e3
:100b8800ce4b9b18683317221a709ce0a42242436c
:100b9800ca4b9b18596b142228000df0e6f900285f
:100ba80008d0a4226243c54b9b18683313221a70dd
:100bb800fff7f7fba4226243c04b9b186833172248
:100bc8001a7080e0a4224243bc4b9b1862331b7806
:100bd800012b11d0a4224243b84b9b1862331b78d7
:100be800022b01d0fff7ddfba4224243b34b9b1835
:100bf800683317221a7066e0002128000ef05afaae
:100c0800a4226243ad4b9b18683314221a70fff775
:100c1800c8fb0022112101f0a1f8a4226243a74bce
:100c28009b1867331b780c2b0ad00b2b00d0bbe525
:100c3800a4226243a14b9b18683317221a7042e022
:100c4800a42262439d4b9b18683315221a70fff744
:100c5800a8fb80229200072101f080f8a4226243b9
:100c6800964b9b1867331b780c2b0ad00b2b00d0a4
:100c78009ae5a4226243914b9b18683317221a7095
:100c880021e0a42262438d4b9b18683316221a7008
:100c980093e5a4224243894b9b18683300221a70bb
:100ca800fff77ffb002128000ef004faa42262431c
:100cb800824b9b18683300221a70fff772fb172bc0
:100cc80001d0fff76efba42262437c4b9b181900ee
:100cd800453100220a7001390a7022310a706333e3
:100ce80001321a70fff75dfba4226243734b9b1815
:100cf80046331b78012b00d0f1e3a42262436f4beb
:100d08009b1869331b78002b00d0e8e3002e27d00e
:100d1800012128000ef0cef9002800d1dfe3a4223b
:100d28006243664b9b181900693102220a703272bd
:100d380048331b78002b02d173695b027361737fa0
:100d4800002b15d1b369013b5a1e93410833337701
:100d5800a4226243594b9b18653302221a70bee3e2
:100d6800a4226243554b9b18653300221a70b6e3e0
:100d7800b369013b5a1e93410a333377a422624375
:100d88004e4b9b18653303221a70a8e37269317fb2
:100d9800200000f0e3ffa4226243484b9b1867330e
:100da8001b780c2b0ad00b2b00d098e3a4226243ab
:100db800424b9b18653319221a7090e3a4226243b0
:100dc8003e4b9b186c331b78002b09d1a42262433d
:100dd8003a4b9b180022da74653305321a707ee3a9
:100de800a4226243354b9b18653319221a7076e3a7
:100df800a4226243314b9b1862331b78012b10d01d
:100e0800a42262432d4b9b1862331b78022b00d01f
:100e180065e3a4226243294b9b18653319221a7093
:100e28005de3a4226243254b9b181a0065326433a4
:100e38001b78137053e3a4226243204b9b18996ad2
:100e4800012228000df091f800280bd0a42262435b
:100e58001a4b9b181a00643206211170653304225c
:100e68001a703ce3a4226243144b9b180022da74e4
:100e7800653319321a7032e3a42262430f4b9b1870
:100e88009b6a1b78fe2b1bd0a42262430b4b9b183a
:100e9800db7c002b20d0a4226243084b9b18213313
:100ea8001b78002b2dd0a4226243044b9b180022f0
:100eb800da74653319321a7011e3c04644120020ff
:100ec800dc4eb6183300653307221a7028000df07f
:100ed80008fe0023f37402e3fa2128000df0eaf873
:100ee800002807d1a4226243d24b9b1865331922ec
:100ef8001a70f4e2a4226243ce4b9b180122da74e2
:100f0800c9e7a4226243cb4b9b18653305221a70ac
:100f1800e5e280223169920028000df026f80028c9
:100f28000bd0a4226243c34b9b181a0064320821d9
:100f38001170653304221a70d1e2a4226243bd4bba
:100f48009b18653319221a70c9e2a4226243b94b6f
:100f58009b18996a022228000df007f800280bd088
:100f6800a4226243b34b9b181a0064320921117002
:100f7800653304221a70b2e2a4226243ad4b9b1877
:100f8800653319221a70aae2337f092b07d0a422ed
:100f98006243a84b9b1865330b221a709fe2b36912
:100fa800013bb361002b07d1a4226243a14b9b18dc
:100fb80065330a221a7092e23369802292009446bd
:100fc800634433615d3aff3a62439a4b9b18653339
:100fd80005221a7083e2a4226243964b9b18996af1
:100fe800012228000cf0c1ff00280bd0a422624384
:100ff800904b9b181a006432182111706533042233
:101008001a706ce2a42262438a4b9b18653319223a
:101018001a7064e200220521200000f09ffea4223d
:101028006243844b9b1867331b780c2b0ad00b2b1d
:1010380000d054e2a42262437e4b9b1865331922e8
:101048001a704ce2a42262437a4b9b1865330b2238
:101058001a7044e27269317f200000f07ffea422fa
:101068006243744b9b1867331b780c2b0ad00b2bed
:1010780000d034e2a42262436e4b9b1865331922d8
:101088001a702ce2a42262436a4b9b186c331b78bb
:10109800002b07d1a4226243664b9b1865330c22b0
:1010a8001a701ce2a4226243624b9b186533192212
:1010b8001a7014e2337f0b2b1dd0a42262435d4bc0
:1010c8009b189b6afe221a70a4226243594b9b18f4
:1010d800996a012228000cf033ff002813d0a422bb
:1010e8006243544b9b181a0064320d21117065330a
:1010f80004221a70f3e1a42262434e4b9b189b6aa8
:10110800fc221a70e0e7a42262434a4b9b1865331d
:1011180019221a70e3e180223169920028000cf04c
:101128000fff00280bd0a4226243424b9b181a00e1
:1011380064320e211170653304221a70cfe1a422a3
:1011480062433c4b9b18653319221a70c7e1a422ed
:101158006243384b9b18d96a022228000cf0f0fe33
:1011680000280bd0a4226243324b9b181a00643229
:101178000f211170653304221a70b0e1a422624372
:101188002c4b9b18653319221a70a8e1a4226243dc
:10119800284b9b18996a012228000cf0e6fe0028cb
:1011a8000bd0a4226243234b9b181a0064321021ef
:1011b8001170653304221a7091e1a42262431d4b19
:1011c8009b18653319221a7089e1a4226243194bce
:1011d8009b189b6a1a781f231340052b07d0a4225b
:1011e8006243144b9b18653319221a7077e1a422c5
:1011f8006243104b9b181a006532112111700022ae
:10120800da746ce1a42262430a4b9b18996a0122a2
:1012180028000cf0aafe00280ed0a4226243054b39
:101228009b181a00643212211170653304221a7057
:1012380055e1c04644120020a4226243af4b9b18dc
:10124800653319221a704ae1a4226243ab4b9b18fa
:101258009b6a1b78002b35d1a4226243a74b9b18ad
:10126800db7c002b11d0a4226243a44b9b182133b2
:101278001b78002b1ed0a4226243a04b9b1800228f
:10128800da74653319321a7029e1fa2128000cf052
:1012980011ff002807d1a4226243984b9b1865339d
:1012a80019221a701be1a4226243944b9b18012255
:1012b800da74d8e7a4226243904b9b186533112255
:1012c8001a700ce128000df00cfca42262438b4b31
:1012d8009b180022da74653313321a70ffe0337feb
:1012e8000b2b07d0a4226243844b9b1865330b2237
:1012f8001a70f4e0b369013bb361002b07d1a42253
:1013080062437e4b9b18653314221a70e7e03369f9
:10131800802292009446634433615d3aff3a624307
:10132800764b9b1865330c221a70d8e0a4226243ce
:10133800724b9b18fd22996a0a70996afc3a280038
:101348000cf0fefd00280dd0a42262436b4b9b18c5
:101358001a006432152111700132113911700022fe
:10136800da74bce0a4226243644b9b1865331922eb
:101378001a70b4e0a4226243604b9b18996a012258
:1013880028000cf0f2fd00280bd0a42262435b4b2e
:101398009b181a00643216211170653304221a70e2
:1013a8009de0a4226243554b9b18653319221a709d
:1013b80095e0a4226243514b9b18996a01222800a8
:1013c8000cf0d3fd00280bd0a42262434b4b9b1892
:1013d8001a00643217211170653304221a707ee0f6
:1013e800a4226243454b9b18653319221a7076e094
:1013f800a4226243414b9b189b6a1b78002b35d172
:10140800a42262433d4b9b18db7c002b11d0a42205
:1014180062433a4b9b1821331b78002b1ed0a42221
:101428006243364b9b180022da74653319321a70fe
:1014380055e0fa2128000cf03dfe002807d1a4222f
:1014480062432e4b9b18653319221a7047e0a42279
:1014580062432a4b9b180122da74d8e7a42262431c
:10146800264b9b18653316221a7038e028000df0b9
:1014780038fba4226243214b9b180022da7465339f
:1014880018321a702be0182a34d001235b4201224b
:1014980001923372002128000df00cfe33791b01f4
:1014a800a4216143154a521852689b185f68002f9f
:1014b80003d09a68f1680198b8476b6d002b04d087
:1014c8001a6a6a6500221a621a70a42262430b4bd8
:1014d8009b181900693100220a7065331a70a42319
:1014e8006343064ce41874340123237002b004bc2f
:1014f8009046f0bd002300220192cae74412002062
:020000040000fa
:10150800f0b5de4657464e464546e0b599b01390cd
:101518000d000092019313a80af0c6ff002800da14
:10152800abe38300c24a9b58002b01d000221a70fb
:10153800c04b4000c25c02921818437899461000cc
:101548000df000fdc30700d599e3430700d59ee3de
:10155800002d01d100f0f0fb6b681793002b01d12f
:1015680000f0edfb179b5a1eb3498a4201d81a4274
:1015780001d0012317936b789846013b012b01d9c1
:1015880001239846ae68721eab4b9a4204d83307c3
:1015980004d08026b60001e08026b600ec688023df
:1015a8005b049c4200d9a0e0631e23405a42534189
:1015b8005b421c40a14b019a9a4200d869e300990a
:1015c800002900d167e32b789b46002316934b46ee
:1015d800002b00d18be0012300220d0002980cf0b3
:1015e80009fe002800d058e3944b2900ea5c120257
:1015f800013beb5c1343924a1bb2934200d04ee38b
:101608004b461d01af35ff358c466544042b00d988
:1016180047e32b79002b00d145e3280008300df073
:1016280081fa049028000c300df07cfa1690169b75
:101638007f2b00d83be3834b802203929c4201d846
:10164800630a039302235a461a400d9264d0013b61
:101658005a4613405a42534102339a464346059329
:101668000df0c8fd1290169a0692130b0f93730192
:101678005b0a0b93049901310e918c4663440a93db
:10168800179b591e08915b420993530c10934346cc
:101698001193b0465346032b00d11fe3039b1c1e36
:1016a80058d02100069809f09bf8674b984265d9f5
:1016b800871c7f00614b9c4667447f0a05990d0093
:1016c8007d430a9b9c466544089b5e19099b1e4006
:1016d800761b300009f0c0f8002957d0013e049b62
:1016e80002330c930223079354e0002462e716aafe
:1016f800012102980bf032fc002800d0d5e200232b
:1017080004935b461b0792d4169b3f2b8fd93f3b14
:1017180016933f2304938ae75b46db0700d4c8e2ad
:1017280002239a469ae70394b4e7484b069a9a42ea
:101738000ed9474b04330224022210998a4200d959
:10174800d0e2640002339a1e1288002af6d1c9e258
:101758000124c7e23f4b069a9a420dd93e4b043307
:10176800022404220f998a429bd8640002339a1eed
:101778001288002af7d194e7012492e747003f181e
:1017880001377f08033701239a4693e70e9b0c9392
:10179800012307930599300009f022f8c7190b9e19
:1017a8002301049aad1a5b19069a9a4200d284e280
:1017b800079b9819101a059b7b43c01a210009f052
:1017c8000ff85346032b13d0022b49d1234b9842d1
:1017d8001ed9039b002b00d07de26400402ca2d9c7
:1017e8000d9b002b00d079e2802c0fd8039451e791
:1017f8001a4b984234d8039b002b00d05fe2012c8f
:1018080002d96308039345e70e2039e20e2037e238
:101818000d4b984200d9bee0039b002b00d050e24c
:1018280063000393802b00d834e70e2028e2c046db
:10183800e4160020ac190020ff7f0000ff01000023
:1018480055aaffffff010100f50f0000ffff01008f
:101858002cef0000ff0f00001cef0000f5ff000058
:1018680008964646119b984605005346012b00d022
:10187800afe0e24b984200d925e280229200002195
:1018880000980df093fa0b22dd4900980df084fac8
:101898000023009ad372023313735473079b937314
:1018a8009bb21b0ad37343461374009a5674b6b29c
:1018b800360a9674d34b0699994200d9a8e0d17498
:1018c8008bb21b0a1375019b5b0a9846129b069afa
:1018d800944663441e00f82300994b75b93b0b7678
:1018e80000234b76ff228a76cb7608001c300499b9
:1018f8000df000fb5346032b00d18fe03100009d13
:10190800280027300df0f6faaf75bbb21b0aeb754d
:1019180024238022ea540233573aea54163aba4941
:1019280028002b300df038faff235b005522ea54cb
:10193800b64b5532ea54ff3bff3b049a2900029804
:101948000cf002fa002800d0bfe1019b5a0a5202ab
:10195800002100980df02afa059b002b00d1e7e141
:101968005346013b5a1e93415b421b06a84a9446c4
:10197800634404930023019303974746d846a3463c
:101988000c9c5346032b00d1c9e0049900980df034
:10199800b1fa039de7e008964646119b9846050074
:1019a80080229200002100980df000fa0b22944941
:1019b80000980df0f1f90023009ad37202331373e3
:1019c8005473079b93739bb21b0ad37343461374d8
:1019d8006be780229200002100980df0e7f90b22b6
:1019e800874900980df0d8f90023009ad372023382
:1019f80013735473079b93739bb21b0ad3734346a9
:101a080013745346033b5a1e93415b421e404ce7f6
:101a18000098203006990df06dfa54e73100009ec9
:101a2800300043300df066fa3000243039000df0f4
:101a380061fa30002c3002210df05cfa30230122cb
:101a4800f25400233032b35401320621b15401322a
:101a5800b35440334d32f2540233573af254163ae3
:101a68006c49300047300df097f9ff235b00552291
:101a7800f254664b5532f254ff3bff3b049a310057
:101a880002980cf061f903000120002b00d0f7e068
:101a9800049b9a1d0123009e310002980cf054f912
:101aa80080229200002130000df080f95a49300060
:101ab8000df020fa3000e530ff3058490df01afae1
:101ac800691e3500e935ff3528000df013fa30009e
:101ad800ed30ff3002210df00dfaff235b00552297
:101ae8003500f254494b5532f254049bda1d012358
:101af8003100029e30000cf027f901230e9a2900cc
:101b080030000cf021f9019b5a0a520200212800ea
:101b18000df04cf9059b002b00d021e733e008219c
:101b28004942009d28000df0e5f901212b1d49428d
:101b380018000df0dff92800083039490df0daf9fe
:101b480027e733002200009902980cf0fdf80028de
:101b580000d0bce080229200002100980df026f908
:101b6800a419ad1b04d02e00bd42ead93e00e8e717
:101b7800019b01330193059a9a4200d901e70c941d
:101b88005c46c346b8465346032b02d10c9e4746d3
:101b98000fe0089c0c9e47460be02b003200009992
:101ba80002980cf0d1f8002800d092e07619641b56
:101bb80004d02500bc42f0d93d00eee75346032b84
:101bc80009d0104b0634169a9a4205d85346022b70
:101bd80011d0053c00e00c244b46002b22d15b467b
:101be8001b073dd50022110002980bf0b7f9431ee0
:101bf8009841c0b244e00424eee7c046f50f000067
:101c0800ccda0000ffff0000ecda0000ff01000062
:101c1800f8ffff00d8da0000525261417272416148
:101c2800ffffff0f01230022009d2900029e3000c4
:101c38000cf0e0fa03000120002b21d14b46013bb8
:101c48001b01ac466344c333ff331c7003000022fe
:101c5800290030000cf078f80028c3d001200fe0ec
:101c6800169b149300231593009b220014a9029835
:101c780003f0f8fc0028b5d002e00b2000e00320b8
:101c880019b03cbc90469946a246ab46f0bd0a2026
:101c9800f6e71120f4e71120f2e70120f0e70e2023
:101ca800eee70e20ece70e20eae70120e8e70e2039
:101cb800e6e71320e4e70e20e2e70e20e0e70e2037
:101cc800dee70e20dce70e20dae70120d8e7012066
:101cd800d6e70120d4e70d9b002b27d0039b1c1ec1
:101ce80000d122e52100069808f07afd8700174bfd
:101cf8009c4667447f0a164b9c466044154b9842a5
:101d0800d9d8049a2032059d7d43ad18089b5b19ec
:101d180009990b405b1b20218c469c446146079126
:101d2800d3180c93002603239a4639e50e20a7e71b
:101d3800089c0c9e47463ce700231793064d17aabc
:101d4800032102980bf00af9fff70cfc07020000c8
:0c1d58000a00fffffffffe0f3cef000041
:020000040000fa
:101d640070b506000d00a4244443c04be4182300be
:101d7400673319780c292bd88b00bd49cb589f4663
:101d8400a4235e43b94b9e190023b374b94bed00f1
:101d9400e95c40200143b06a0170110eb06a4170e1
:101da4001102090eb06a81701104090eb06ac17083
:101db400b16a0a715b195b78b26a5371ff23b26a24
:101dc4009371330024330a221a7067360123337067
:101dd40070bd012120000df06ff90028f8d0a42275
:101de4007243a24b9b18996a062220000cf0aaf8b1
:101df400002807d1a42373439c4ef61867360a23a0
:101e04003370e5e7052d07d0a4237343974ef618e6
:101e1400673603233370dbe7a4237343934ef6182a
:101e2400673602233370d3e7a42242438f4b9b18b7
:101e340062331b78012b0dd0a42242438b4b9b1899
:101e440062331b78022bc3d1884eb61867360a2337
:101e54003370bde7a4224243844b9b18996a012244
:101e640020000cf084f8002807d0a42373437f4e8d
:101e7400f618673603233370aae7a42373437b4e13
:101e8400f61867360a233370a2e7a4224243774b3d
:101e94009b1862331b78012b0ed0a4224243734b50
:101ea4009b1862331b78022b00d091e76f4eb61853
:101eb40067360a2333708be7a42242436b4b9b188b
:101ec400996a012220000cf052f8002807d0a423bc
:101ed4007343664ef61867360423337078e7a423f9
:101ee4007343624ef61867360a23337070e7a422f0
:101ef40042435e4b9b1862331b78012b0ed0a42205
:101f040042435a4b9b1862331b78022b00d05fe785
:101f1400564eb61867360a23337059e7a422424353
:101f2400524b9b18996a0a786c331a70ff2a1ad09c
:101f3400ed00504b5d19ab78012b61d0002b2dd0f7
:101f4400022b41d0042b00d042e7042220000cf0e5
:101f54000ef800286ad0a4235e43444b9b196733d0
:101f640006221a7034e7a4234343404ad218243289
:101f74001378013bdbb21370002b07d1a433434326
:101f84003a4ef61867360a23337021e7a4234343f5
:101f9400364ef61867360323337019e70122200002
:101fa4000bf0e5ff002807d0a4235e432f4b9b19b9
:101fb400673308221a700be7a4235e432b4b9b194b
:101fc40067330a221a7003e7a4207043274b1b18b7
:101fd4006d331a70012220000bf0c9ff002807d0ce
:101fe400a4235e43214b9b19673305221a70efe645
:101ff400a4235e431d4b9b1967330a221a70e7e63c
:10200400012220000bf0b3ff002807d0a4235e4375
:10201400164b9b19673307221a70d9e6a4235e4333
:10202400124b9b1967330a221a70d1e6a4235e432c
:102034000e4b9b1967330a221a70c9e6a422424345
:102044000a4b9b1862331b78012b15d0a422424300
:10205400064b9b1862331b78022b00d0b8e6034e64
:10206400b61867360a233370b2e6c046441200201d
:1020740060d900002c9f0000a4224243944b9b187b
:102084009a6a12786c331a70002a17d1a422424338
:102094008f4b9b189b7c002b30d0a42272438c4b1b
:1020a4009b1820331b78002b3dd0894eb618330083
:1020b40067330a221a700023b37489e620000cf0f7
:1020c40007fda4227243824b9b1800229a74d96a9a
:1020d400013220000bf036ff002807d1a4237343fc
:1020e4007b4ef61867360a23337071e6a4237343d4
:1020f400774ef61867360823337069e664212000aa
:102104000bf0c6ff002807d1a4235e43704b9b1934
:1021140067330a221a705be6a42272436c4b9b1845
:1021240001229a74b9e7a4227243694b9b18996af5
:10213400012220000bf01bff002807d0a4235e43dc
:10214400634b9b19673307221a7041e620000cf099
:10215400bffca42373435e4ef6180023b3746736a2
:102164000a33337034e6a4224243594b9b1862333a
:102174001b78012b0ed0a4224243554b9b1862338b
:102184001b78022b00d023e6514eb61867360a237b
:1021940033701de6a42242434d4b9b189a6a117872
:1021a4001a006d321170d96a012220000bf0cafea8
:1021b400002807d1a4237343454ef61867360a2333
:1021c400337005e6a4237343414ef618673608239b
:1021d4003370fde5a42242433d4b9b1862331b78c8
:1021e400012b0ed0a4224243394b9b1862331b7837
:1021f400022b00d0ece5364eb61867360a2333704e
:10220400e6e5a4224243324b9b189a6ad07819001f
:10221400703108709078013108705078013108707d
:1022240011781a0073321170d96a012220000bf060
:1022340089fe002807d1a4237343254ef618673678
:102244000a233370c4e5a4237343214ef61867367a
:1022540008233370bce5a42242431d4b9b18623310
:102264001b78012b0ed0a4224243194b9b186233d6
:102274001b78022b00d0abe5154eb61867360a233f
:102284003370a5e5124eb6186736092333709fe5ff
:10229400a42343430e4ef61867360c2333700021f3
:1022a40020000cf009ff93e5a4234343084ef618dd
:1022b40067360b233370002120000cf0fdfe87e508
:1022c400a4234343024ef6186736002333707fe598
:0422d4004412002090
:020000040000fa
:1022d800f0b59bb013930b6815900a938b680d911a
:1022e8000b930b694d681893cb6802931368089396
:1022f8005368089806930022002306990af0d3ff32
:1023080000280dd10a9b5b073bd408200a9b034099
:1023180009930b9b0393099b002b0fd0202306e006
:10232800802212069446069b634406932d23029a44
:1023380013700b9b013b039301230993069b089998
:102348005b005b08924a00291dd193421bd1029978
:10235800139b8c46099a413b624410008d49192b06
:1023680000d98d490cf0a0fe02980cf073fb0a9b73
:102378000200009302990b9b159808f0cbfe1bb046
:10238800f0bd2b23d3e7934203d80ed1089b002b33
:102398000bd00299139b8c46099a413b624410006a
:1023a8007e49192bded97e49dce7002200230898f4
:1023b80006990bf056fd00267a4f002400283ed1de
:1023c800040002e00134049e059f0022764b300091
:1023d800390003f077fd089a069b049005910af0ee
:1023e80043ff0028eed00023049320e06f4b9c426b
:1023f80014da049b002b11d100226d4b0898069922
:1024080003f060fd6a4b0890069130003900002205
:1024180003f058fd012306000f0004933000390033
:102428000022614b06f0f6fc06000f00013c32006a
:102438003b00089806990af036ff0028d6d1139871
:102448000cf0befdc3b20c93002d00da94e10493a6
:10245800672b00d0b2e0002d00d189e1231d02dbfb
:10246800ac4200daa6e06523b6e0002200230e9213
:102478000f9303e106960797049b2600652b00d06f
:102488001ae1002618e1129b002b0bd1002e09da65
:10249800029a14992e335354039b0137013b03933b
:1024a80001231293ea193b009446302102e0029a74
:1024b800d15401339c45fad1039aeb19551b029a62
:1024c80030305f1cd0546b1e0393002521e00d9b18
:1024d80014971b691093053bbb4200d8f5e0069a98
:1024e800079b08980e9906f095fc07f071fa109072
:1024f80011910bf001fb092800dd092010230a9a2d
:1025080013400343bfd10c9b672bbcd1002ec9da03
:1025180001358020000684460e99089a61440b0014
:102528001098119900920193069a079b0cf02afdc6
:1025380080231b06cb1808900e9306980799002253
:10254800194b06f067fc013e06900791b9e00a9b1b
:10255800db0600d4bde02e23029ad3550137b8e03c
:1025680020000a2107f030fc029b3031013d59550b
:1025780020000a2107f0defb039b0400013b0393c4
:10258800b7e0029b03991a5c5b181a540138e0e023
:102598000000f07f7cef000080ef000084ef000077
:1025a80088ef00000000f03f00002440d4feffff49
:1025b80000005043002c0eda66230493049b013577
:1025c800662b0ad1002c02da002600246d4f0c9be2
:1025d800672b00d02d1966230493089b0e960f973e
:1025e8001293069b1093002314930e9a0f9b129834
:1025f800109906f00ffc07f0ebf9169017910bf005
:102608007bfa19908020000684461099129a61443a
:102618000b0016981799009201930e9a0f9b0cf0d5
:10262800b1fc80231b06cb18129010930e980f99bb
:10263800554b002206f0eefb149b0e900f910133d0
:1026480014939d42d1d10022504b03f03bfc0e90d5
:102658000f9102000b00129810990af024fe00282e
:1026680000d002e70e9a0f9b129810990bf0f9fb15
:10267800002803d0199bdb0700d4f6e60e9a0f9bbf
:102688000898069902f052fd002208900e913e4be0
:102698003000390003f016fc089a0e9b069007914b
:1026a8000af07efc002800d1e4e6049b0134662b86
:1026b80000d0e1e626000135731b0025099f16931b
:1026c8001295169b9e4200d001e7129b002b00d169
:1026d8003de70026029bdb1906931e70049b652bc1
:1026e8002ad1189b5d1e029b5e55b44201da6442f2
:1026f8000136002c00d033e7189beb1a0333002b6c
:1027080000dd2de76a1e2d23002e00d1023b029921
:10271800023d8b54139b413b192b01d8452304934d
:10272800029b5919049b0b70039b023b0393af4216
:1027380002da06980cf0b8fc03230a9a1340022b1d
:1027480000d011e6039b002b00dc0de602980cf08c
:1027580081f9099b834200dc13e7029a30219446f1
:1027680063441800039a0cf021fb00230b93fbe54c
:10277800012573e6062571e60c9b672bfad00493b6
:1027880006251be70000f03f00002440000014402d
:020000040000fa
:10279800f0b599b014930b68566809934b68139079
:1027a8000d938b68cf680c930b69310011931368f4
:1027b80000220893089800230af075fd00280cd120
:1027c800099b5b0724d40820099b0c9d03400593b3
:1027d8000cd02023013d3b7006e080231b06f61831
:1027e8002d233b700c9b5d1e01230593089a7300f3
:1027f8005b08002a0ed1ac4a93420bd1149b059a70
:10280800413bb818a94caa49192b12d9210010e04c
:102818002b23e6e7a44a934203d819d1089b002b3f
:1028280016d0149b059a413bb818a24ca249192b03
:10283800ecd80cf039fc20000cf00cf9099b0200d4
:10284800009339000c9b139808f064fc19b0f0bd94
:10285800059b05995a1c30237b54149b413b0e93ce
:102868000e995823192900d920330599bb540231f0
:10287800ab1e0591079300220023089831000bf046
:10288800f0fa002800d165e100238c4c06930293ee
:1028980003940d9b1093002b01da18231093029bcd
:1028a800039c0a930b9434000023089d129328007c
:1028b8000a9a0b9b210006f0adfa07f089f80a9aec
:1028c8000b9b1690179103f0fdfa02000b002800ed
:1028d80021000cf05ffb7a4b05000c000a980b995d
:1028e800002203f0effa129b0a900b9101330f9329
:1028f8000d9b002b07da00220023280021000bf093
:10290800b0fa002806d1109b129a934200dd27e105
:1029180001330f9300220a980b996a4b03f0d2fafd
:102928000a900b9102000b00280021000af0bbfc62
:10293800002800d016e10a9a0b9b280021000bf012
:1029480090fa002806d0169817990bf0d5f8c30707
:1029580000d407e10a9a0b9b0898310002f0e6fbc5
:10296800129149000a904908002803d14e4b994218
:1029780000d143e70025059c10950895119b26007a
:10298800053ba34230d9029a039b0a98129906f094
:1029980041fa07f01df8149015910bf0adf8031edd
:1029a80000d0e4e0089a002a00d1e0e00135029a5c
:1029b800039b1498159903f085fa02000b000a98f6
:1029c80012990cf0e7fa00220a9012913c4b0298f7
:1029d800039903f077fa089b029003910133089357
:1029e800089a0f9b9342c9d1109b002b1ad1002d36
:1029f80000d100e10d9b002b00dcfce0099bdb070c
:102a080000d5f8e02e2230213b191a702a19ba187d
:102a1800597001339a42fbd12c19ed43079b0134bd
:102a2800eb18079300263b191e700293119b5d1e3d
:102a3800069b7e55b34202da5b4206930136069b3b
:102a4800002b00d0c0e0119beb1a013300d1bbe092
:102a58006a1e2d23002e00d1023bbb540e9a023d64
:102a68005023192a00d9203379190b70ac4202daa5
:102a780002980cf019fb0323099a1340022b11d179
:102a8800079b9c1e002c0ddd38000bf0e3ff059b17
:102a9800984200dba8e0f818220030210cf086f9f3
:102aa80000230c933800c7e60000f07f70ef0000a9
:102ab8006cef000078ef000074ef00000000f03fba
:102ac8000000b03f00002040069b029403950133ac
:102ad8000693029a039b1000190002f027fb0400da
:102ae8000d0002000b00089831000af0dcfb0028fa
:102af800ead0029a039b089831000af0d4fb002818
:102b080000d1c6e60298039900223f4b03f0daf998
:102b1800002200230bf0a5f900280fd00298039992
:102b280000223a4b03f0cef9002202900391374b72
:102b38000898310003f0c6f90e000890324b02984d
:102b48000399002203f0bef9069b02900391013b12
:102b58000693cee700232e4c069002930394b8e721
:102b68000f9ba3e6002300240a930b94f2e6109a25
:102b7800002a0ad1089a002a07d02e22ba55079aa5
:102b88000134013a0792012210922e19302201e0f5
:102b98003a550134b442fbd11800079a5730551bf7
:102ba800092b01dc303318000e9b192b06d8202383
:102bb8000343613b192b01d80cf009fa6b1e741cf6
:102bc800b85507930025f2e606980a2107f0fcf8a5
:102bd800013d3031795506980a2107f0abf8079b7b
:102be8000690013b07932ae7079b3a5c023bfb18d8
:102bf8001a5401384be7099bdb0600d412e72e2351
:102c08003b5501340ee7c0460000e03f000050434a
:042c18000000f03f89
:020000040000fa
:102c1c00f0b5de4657464e464546e0b585b0b04b5e
:102c2c001c68187d002809d12378002b30d105b001
:102c3c003cbc90469946a246ab46f0bd2378002b8f
:102c4c0000d019e2210028310022531cdbb298423b
:102c5c00edd028310d00283d2d78002d01d11a0022
:102c6c00f3e70232d2b2012a00d106e29c490a757e
:102c7c00ff2bdcd09a00d318db00e4186379012b0e
:102c8c0008d0237b042bd2d89b00964ad3589f465e
:102c9c000300efe7237b042b10d0002323732023a6
:102cac00e35c012b00d1bbe1002323702022a35451
:102cbc006371a370e37063702371b8e7884b0022d3
:102ccc005a75eae7e088a3685b6a0321984760615c
:102cdc00431cacd0a3681b6922008349984702238c
:102cec002373a4e7a3681b686069984700280ed07b
:102cfc002023e35c002b06d1a3685b6860699847ce
:102d0c0060620323237320230122e2548fe72023e4
:102d1c00e35c012b03d020230022e25487e7200040
:102d2c0009f094fb00232371f5e76d4b5b7d002bc1
:102d3c0000d07ce76a4b01225a75636a1b691968db
:102d4c006a4b0126994204d88020800007f046fd8a
:102d5c000600634d80229200002128690cf024f8b3
:102d6c0021230222e2542a6921001c316069a368e4
:102d7c0000969d680023a847e369013302d0042321
:102d8c00237354e7564b00225a7550e72123e35620
:102d9c00022b07d0002b0dd0514b00225a75032368
:102dac00237344e7a368db6a002b00d13fe720695b
:102dbc0098473ce74a4b1d6900236370ff33ff3390
:102dcc00eb5c00229146552b00d199e04f46ff2336
:102ddc009b46434b5d682b78002b7bd1404b1b698a
:102dec009a46237901332371237e9b00404a9b58da
:102dfc00039318000bf02cfec6b2aa1c0292ff2300
:102e0c00034098461a00039902980bf0c3ffa3786d
:102e1c004246a8188370731cdbb2eb18227930324f
:102e2c009a700236f6b2ae190023b370ac615b46f1
:102e3c006b703b1e23d0fb0700d4d5e000235a4611
:102e4c00ff2a1cd05a002b49525a5146895c697092
:102e5c005244d17a0906907a00040918107a09189c
:102e6c00507a000209186961d17909069079000439
:102e7c00091810790918527912028a182a614a46df
:102e8c00002a00d1bee01c4ae17811700133537066
:102e9c0001232b70124b9d68227e2b7a9a4219d1fa
:102eac006e68711d02980bf046fe002812d16a7aea
:102ebc00296800230093300002f054fe03230028fd
:102ecc0000d1a5e00d4a1668002e03d0526829687f
:102edc001800b047024b00225a7502232373a6e652
:102eec00b81900203ced000065da0000ff0100007d
:102efc0050ed000084f10000ac1900208019002076
:102f0c00604beb5caa2b00d060e72b78eb2b31d01d
:102f1c00e1235b00e85c0bf053fd002851d1637892
:102f2c0000276370e9235b00e85c0bf049fd002887
:102f3c0004d002231f43637801336370f1235b00d9
:102f4c00e85c0bf03dfd002842d004231f4363785e
:102f5c0001336370f9235b00e85c0bf031fd002852
:102f6c0032d008231f4363780133637001239946e1
:102f7c009b462ee76b783c2b03d0582b01d0fe2bb5
:102f8c00c6d1ab78902bc3d18f3b63705133eb5cc4
:102f9c00462b49d05323eb5c412b4bd05423eb5c99
:102fac00542b4dd03623eb5c462b4fd03723eb5ca8
:102fbc00412b51d03823eb5c542b53d00023994632
:102fcc0004e701230127ace7012399469b4600e760
:102fdc00f9235b00e85c0bf0f3fc0028c1d1002f57
:102fec0046d101239946f1e6bb0701d5012326e71b
:102ffc007b0701d5022322e708233b4000d11ee7c3
:10300c0003231ce7204be2781a7000225a703fe72a
:10301c000cf036f803000d3b58424341dbb251e74c
:10302c00200009f013fa3fe6002399461f000b33ea
:10303c009b46cee6002399461f000b339b46c8e601
:10304c00002399461f000b339b46c2e6002399468a
:10305c001f0006339b46bce6002399461f0006332f
:10306c009b46b6e6002399461f0006339b46b0e606
:10307c00012399469b46ace60023044a00211175b6
:10308c00f8e5c046ff010000ac190020b81900207b
:020000040000fa
:10309c00f0b5de4657464e464546e0b589b00f00c2
:1030ac00150000230b6009f0fdf9061e00da3ae169
:1030bc008300b44a9c58002c00d13de13c600123b4
:1030cc009d432f002378002b0dd060780cf0d4f8a2
:1030dc00c30708d4002d00d126e10427074000d1f6
:1030ec0022e10a2720e10023237060780bf028ffef
:1030fc000125054000d021e1002f02d0430700d567
:10310c001ee17600a04b9e1977780021200004f078
:10311c007bfa022802d03fd8002f43d0042f00d9cd
:10312c002ee12600ff36ff36984b9946a14404ab9e
:10313c0098464b46a9464246a04614001d00300056
:10314c000bf0eefc01c41036ae42f8d144463e0002
:10315c00731e9e41be1bb60004ab9c46664408ab76
:10316c0025001c00c8460ee0280004f04dfa002f84
:10317c0000d0c2e0012803d82c00454612e0032001
:10318c000436b44206d031680029edd1002ff6d0b8
:10319c000d27c9e02c004546042800d1d2e00128b7
:1031ac0000d9d1e04423e25c1202013be35c1343ff
:1031bc00802292001bb2934200d0c7e04f23e65c02
:1031cc003602013be35c1e4304d120005c300bf063
:1031dc00a7fc0600636b9b4626624823e35c98467b
:1031ec00e370013b012b00d9b2e04523e75cbbb295
:1031fc006381002b00d1ade07b1e1f4200d0abe001
:10320c004a23e25c1202013be35c13431bb20193c1
:10321c009bb29a4623811b0700d09fe04c23e05cb5
:10322c000002013be35c184303d1200058300bf043
:10323c0077fc4723e35c1b024622a25c1a439146af
:10324c0000d18de043467343039352461109494420
:10325c0098468844404500d284e04346c31a39005e
:10326c000293180007f0bafa029bbb4200d27be033
:10327c00474b984200d999e0464b984240d8464b70
:10328c00984200d9fee0831c1800e3615b46636240
:10329c004b465b44a3625946414421630d27524679
:1032ac00002a41d0039a94466344e36201230293bb
:1032bc004300844663445b0801270740df19374b02
:1032cc009c4667447f0ab74256d801235b42636130
:1032dc00236181336371029b2370314a138801335c
:1032ec009bb21380e3802f4be3600023a3612e4b32
:1032fc001b689c4213d02f0016e02c0045464be770
:10330c000323029354e05246002a33d0039a944686
:10331c006344e362029b022bcad17f00cfe7224bae
:10332c0000221a60e7e70b27380009b03cbc904636
:10333c009946a246ab46f0bd0c27f5e70327f3e709
:10334c000a27f1e70127efe70d27ede70d27ebe75c
:10335c000d27e9e70d27e7e70d27e5e70d27e3e75d
:10336c000d27e1e70d27dfe70d27dde70d27dbe76d
:10337c000d27d9e70d27d7e70d27d5e70d27d3e77d
:10338c000d27d1e7e4160020ac1900203e02000006
:10339c00f5ffff0ff5ff0000f50f0000ff01000027
:1033ac00ae1900206c0e00203c1900200023029363
:1033bc00029b002be2d0871c3800e7615b466362fe
:1033cc004b465b44a36242465a442263029a032a48
:1033dc0099d16323e25c1202013be35c1343019a33
:1033ec001a4313b2002bc1d1200064300bf098fbb0
:1033fc00e062bf00254b9c4667447f0ab742b7d8b2
:10340c0001235b426361236181336371173be25c8f
:10341c001202013be35c1343012b00d05be75946de
:10342c00013120000af060fa002800d053e7002395
:10343c006371174be25c1202164be35c1343164aa2
:10344c001bb2934200d046e7200038300bf068fbeb
:10345c00124b984200d03ee787239b00e0180bf0fc
:10346c005ffb0f4b984200d035e788239b00e01898
:10347c000bf056fb606189239b00e0180bf050fbae
:10348c00206128e70223029395e7c046ff01000064
:10349c00370200003602000055aaffff525261416c
:0434ac007272416196
:020000040000fa
:1034b000f0b5de4657464e464546e0b587b08346f2
:1034c0000f00036899460b782f2b06d05c2b04d095
:1034d0004a469269826008e001373b782f2bfbd087
:1034e0005c2bf9d000235a4693603b781f2b04d9fc
:1034f000ca463b005f469b4621e12f238022594666
:10350000ca540021584606f09ff89ee1fe2c00d9cf
:10351000aae163005e53013405a80af017ff431cbb
:1035200000d1a1e1be4b984203d96300020c5a536b
:10353000013486b21f2e29d92f2e0dd05c2e0bd030
:103540007f2ee3d80004010cb6480bf03dfc0028a8
:10355000dcd089e101330593059b1a782f2af9d035
:103560005c2af7d000261f2393427641b3000093d4
:10357000059b9b46012c0cd0022c22d0002c00d1a4
:1035800070e1a94be3185b00eb1826e004230093dd
:10359000eee72b882e2bf4d1630000225a530e2025
:1035a00039002431a2429b41034020338b54013225
:1035b0000b2af7d12026009b33431e002f23fe54f5
:1035c000a3e06b882e2bdcd12b882e2bd9d1e3e7ff
:1035d000013c023b002c00d144e11a88202af7d09c
:1035e0002e2af5d063000022ea52002c00d13be1e4
:1035f0002a88202a44d1002601367200aa5a202a9d
:10360000fad0002e3dd0032200991143cab2009295
:10361000ea18023a1288043beb182e2a06d0013c25
:10362000002c03d0023b5a882e2af8d138002430cf
:103630000b2220210bf0befb0823019300230293f1
:103640000393a8462500741c76004346f65a002ec4
:1036500031d0202e1ad02e2e16d0029b019a9342e2
:103660001bd2ac4200d101e17f2e7dd831006f48e2
:103670000bf0aafb002800d1b3e0009b994686e03e
:1036800000262e2ac4d1bee7ac42e6d00323009a1e
:103690001a43d3b200932600d5e7019b0b2b54d0dd
:1036a000ac4200d1e6e00323009a1a43d3b2009360
:1036b000ac4200d8dee02423fb5ce52b50d0019b1c
:1036c000082b00d1a7e00c23039a13400c2b02d047
:1036d000d3439b0704d10223009e1e43f3b2009301
:1036e000009a93070ed4039bdb0703d510231a43dc
:1036f000d3b20093039b5b0704d50823009e1e43af
:10370000f3b200932f23009afa54380002f062f9c2
:103710002f23fb5c002800d08ce05b0700d594e0f1
:10372000bb7910221a4200d19ae0534638337a69a5
:10373000d105c90d591850460af095feb8605b4690
:1037400005933b68dd680024e6e60323009e1e43e4
:10375000f3b200932423fb5ce52bb4d10b2301933c
:1037600024230522fa54aae70223009a1343dbb26a
:103770009946b621ff31300009f068fb06000306c8
:1037800013d57f2318402a4b1e5c002e26d103231d
:103790004a461a43d3b20093029b5f265a1c0292f8
:1037a000fb1824331e7026004de7ff28edd9019b3e
:1037b000013b029a9a4208d2029a531cba18243248
:1037c000000a10704a460092e8e70323009a1a4361
:1037d000d3b200932600019b029334e74b4600933b
:1037e00044e73300413b9bb2192b05d80223039acf
:1037f0001a430392029bd1e73300613b9bb2192b22
:1038000007d80123039a1a430392203eb6b2029bc3
:10381000c4e7029bc2e7039b9b00dbb2039352e722
:10382000ffff000078ed0000ffffff7f84ed000048
:10383000b0ad0000042808d19a060dd55b0700d46e
:103840007de72f238022fa54002007b03cbc90462d
:103850009946a246ab46f0bd5b07f6d40520f4e7d7
:103860000520f2e700232b800620eee7019b0b2bbf
:1038700000d16ae7039b9b00dbb203932e000b236e
:083880000193033b0293dee615
:020000040000fa
:10388800f0b5de4657464e464546e0b59fb00400c3
:103898000f000092232302aa9446634400221a7060
:1038a800483200210ca80bf081fa0b94ba4634e197
:1038b80001239c46e2440ba809f050fd2de1524635
:1038c800d11c01939378002293463ae15346d91cc0
:1038d8009b78202201921e3a934632e10a00002783
:1038e800180030388a46092800d933e11900bb008e
:1038f800db195b005b18303b1f00531c11781a0062
:10390800080030380928f2d99a460b0022e15346bc
:103918001b782a2b08d1009a20ca53465b7800925c
:1039280002229446e2441ae101229446e2445246b5
:10393800002519003039092900d910e11900ab0018
:103948005b195b005b18303b1d00531c11781a0093
:10395800080030380928f2d99a460b00ffe0683b86
:103968005a461a43934653461b7801229446e2442a
:10397800f8e0009c02ccc9b20ba809f0effc009457
:10398800cbe0009b40cb9946002e1ed03178002911
:1039980020d000240134335d002bfbd1002d02db45
:1039a800ac4200d92c005b469b071cd4a74206d921
:1039b80001990ba809f0d2fc0134a742f8d131785b
:1039c800002912d14b460093a7e0233602ab9c4650
:1039d8006644dbe70024e1e74446651ca7421ad8a1
:1039e8004b46009399e00029f7d0b0460bab009303
:1039f800002df2d04346a0462c001d00013500984a
:103a080009f0acfc29780029e6d02b1bb342f5d18c
:103a18004446e2e71d0020210ba809f09ffc6b1c1f
:103a2800af42f7d14b46009377e019000ba809f095
:103a380095fc72e00a22100001e0102210005a469c
:103a4800520700d4b1e0009a20ca0092642b00d03b
:103a5800b1e0002d00dbaee06d4201225946114372
:103a68008b46a8e0009a20ca0092f2e72722a6e037
:103a78007b1c303402aa013ad454ae4216d8050051
:103a8800202b0ed01f003100280006f0e5feccb236
:103a98003100280006f0a4fe092ce9d94c44e4b210
:103aa800e6e747461e00013b984603e04246b84613
:103ab8001e0017005b46db0704d52d2302aa935589
:103ac800464602365b469b070fd4be420fd23500ee
:103ad800019c21000ba809f041fc0135af42f8d147
:103ae80002ab741e1c191e0004e03500f8e735000f
:103af800f6e71c0021780ba809f030fc631ea642eb
:103b0800f7d16c1caf4201d807e01c0020210ba89c
:103b180009f024fc631ca742f7d153461978002901
:103b280056d0252900d0c3e65b78302b00d1c6e6f5
:103b38002d2b00d1cae651460231202201920022e3
:103b480093462a2b00d0c9e6009a80ca4b1c9a4695
:103b58000b7800922e2b00d1d9e601256d426c2bf3
:103b680000d1fce6002b33d01a00583ad1b22029f4
:103b780000d95ae78a001b498a5897465a4652077d
:103b880002d40822100013e0009a20ca00920822ea
:103b9800100010e05a46520705d5009a20ca009234
:103ba8000222100007e002221000642b00d159e71e
:103bb800009a20ca00920722782b00d156e7d3b288
:103bc80099460023984606003b00474698465ae720
:103bd8000ba809f0e1fb1fb03cbc90469946a246f1
:083be800ab46f0bdacac0000df
:020000040000fa
:103bf0000023f0b506001500b1b0079103930799b3
:103c00000b78002b00d10ce101235b420c9310ab2d
:103c100000240e9380230b940d940f930b5d002bc7
:103c200001d0252b2ad1002c06d0220030000af02a
:103c300020fb079b1b190793079b1a78252a00d0a6
:103c4000e4e0013304930793022301219c461027eb
:103c5000079803782b2b1ad025d8202b1ad0232b8a
:103c60001dd02a2b28d009f0c3fa0d90079b1a7893
:103c7000303a092a31d801330793f7e70134cde709
:103c80000b9b05930b4301300b930790e0e7042354
:103c90000b9a0fe00b9b0593059a08230ae00b9bf8
:103ca00005933b43efe72d2bead0302bd9d1624669
:103cb0000b9b05931343e6e72b6801301a1d1b6825
:103cc00007902a600d93002b07da0b9a5b4205924e
:103cd000012205990d934a400b920b9bda0702d5fe
:103ce000022293430b93079b1a782e2a0ed10022af
:103cf000581c0c9207905a782a2a27d1023307932e
:103d00002b681a1d1b682a6005930c9307a809f0fd
:103d100011ff079b070018780bf056f9692800d1ae
:103d200082e034dc632800d1dbe01adc252800d1f6
:103d3000e8e0612858d0049b0122079300235242f7
:103d40000c920b930d9300930232e5e009f050fac8
:103d50000c90079b1a78303a092ad7d80133079379
:103d6000f7e7642860d06728e5dc2a00390008a856
:103d70000af03ef9002800d1afe0079b0ba95a1cbe
:103d800007921b7808aa3000fef7a6fa3de07028db
:103d900000d17de016dc6e2800d197e06f28cad1f3
:103da0002b000022390008a805f01afa002800d1db
:103db00093e0079b08aa01330ba93000079307f093
:103dc000fefd22e0752840d078284fd07328b2d16c
:103dd000802f00d081e0079b2a6801330793131dd1
:103de0002b601268002388e02a00390008a80af036
:103df000fff8002800d170e0079b0ba95a1c07921e
:103e00001b7808aa3000fef7c7fc2418039b1c1976
:103e1000a34200dc82e04f22414b1a6001235b4247
:103e20000393039831b0f0bd2b000122390008a89c
:103e300005f0d6f9002850d0079b08aa01330ba93a
:103e40003000079305f022fedfe72b000022390047
:103e500008a805f0c5f900283fd0079b08aa013340
:103e60000ba93000079308f0d3fbcee72b0000220c
:103e7000390008a805f0b4f900282ed0079b5a1c79
:103e800007921b7808aa0ba9300003f0e7f8bce7fb
:103e90002b000022f02108a805f0a2f900281cd070
:103ea000079b099a01330793089b13430cd11d4fbd
:103eb00038000af0d3fd390002000b9b00930d9be4
:103ec000300007f02bf9a0e77823dbe7039b3900ec
:103ed0001a1908a82b0007f07ffe079b01330793f0
:103ee00094e7802ff9d1079b013307932b681a1da4
:103ef0001b682a6008aa137001230ba9300008f080
:103f000029fd82e7802fe8d10122079b0133079327
:103f10000b9b049300930d9b0349d1e703946ee63a
:0c3f2000a819002024f200002af2000082
:020000040000fa
:103f2c00d019002004000000010000000000000077
:103f3c00441800201c000000000000007c18002029
:103f4c0018000000000000004c1900200c000000bc
:103f5c000000000094180020180000000000000071
:103f6c00a81500205800000000000000fc180020dc
:103f7c0010000000000000008813002090000000da
:103f8c0000000000f41700202800000000000000d2
:103f9c00181400209000000000000000ac18002055
:103fac001400000000000000281700203c00000056
:103fbc0000000000c01800201400000000000000e9
:103fcc00581900200c000000000000000c19002003
:103fdc001000000000000000d418002014000000a5
:103fec000000000044120020a400000000000000ab
:103ffc00e81800201400000000000000001600204b
:10400c0054000000000000009c1700202c00000051
:10401c0000000000b01900200100000000000000aa
:10402c00c81700202c00000000000000a81400207d
:10403c000001000000000000a41600204000000059
:10404c0000000000701900201000000000000000ab
:10405c00641900200c000000000000007c110020fe
:10406c00c800000000000000b11900200200000090
:10407c0000000000ac19002002000000000000004d
:10408c00b31900200100000000000000801900207e
:10409c0008000000000000000000002000080000e4
:1040ac00000000006c0c002000020000000000006a
:1040bc001c180020280000000000000060180020e0
:1040cc001c00000000000000b819002018000000bf
:1040dc00010000001c18002060180020fcef0000fc
:1040ec00000000006c0c002000000000b41900203f
:1040fc0001000000000000008819002008000000ea
:10410c00000000001c19002010000000000000003e
:10411c006c10002010010000000000002c19002081
:10412c0010000000000000009019002008000000a2
:10413c0000000000b5190020010000000000000084
:10414c006417002038000000000000003c0a00202a
:10415c003002000000000000000800203c020000bb
:10416c0000000000b6190020020000000000000052
:10417c00e416002004000000000000003c190020a0
:10418c001000000000000000ae190020020000002a
:10419c00000000006c0e0020000200000000000077
:1041ac00981900200800000000000000e81600200c
:1041bc004000000000000000e8120020a0000000f9
:1041cc0000000000d81900200200000001000000cf
:1041dc0001000000a01900200400000000000000f5
:1041ec00541600205000000000000000a41900200c
:1041fc000800000000000000d4190020040000009a
:10420c0001000000000000000000000000000000a1
:020000040000fa
:10421c00f0b5de4657464e464546e0b589b0804679
:10422c002f23c35c1a009b465f239a4300d0f3e014
:10423c0003689946da681388002b1ed000260136d5
:10424c007300d35a002bfad1414624310c2205a815
:10425c000af0a0fd5b46db076cd52f2340224146bc
:10426c00ca5447462437353a05a938000af092fd5e
:10427c0001240123009645460fe00026e4e70139ae
:10428c00002945d05b0054461440e318520864469c
:10429c002342f4d04340f2e7444607220f218846dc
:1042ac000ae0013a03a810184170002a00d1d6e0a8
:1042bc000f2b00d8d8e033004046184001003031b5
:1042cc001e093929edd90731ebe7f9540133072bd6
:1042dc0006d80100072af8d803a9895c0132f4e753
:1042ec00280001f071fb002818d10134642c46d051
:1042fc004b46de680b2205a938000af04bfd230063
:10430c00052ccad901229246120494467348a04641
:10431c003288002ac0d002361021b3e7009ea8468e
:10432c000500642c00d180e0042876d12f2342466e
:10433c005946d1545b469b0700d4a5e00c360d21a1
:10434c00300006f04bfa8346411c404608f024fb33
:10435c00051e62d10c2e00d89ce05b4659014346e9
:10436c005b69591a404605f069f9051e55d140465e
:10437c0024300af025fa0190da46c34623e00725db
:10438c004be0210058e03c006746554a934203d06d
:10439c004900cb5b002b03d14023009a1a430092b7
:1043ac00009b237001234a4613710021584604f0e8
:1043bc00bffa002800d08fe001235b429c46e24408
:1043cc005346002b26d05b46d969484609f08cfa37
:1043dc00002800d07ee04b46df685b461c6a5346e3
:1043ec00dbb20093019b63730f23e37200232373ef
:1043fc00a376e376ff21534619404b1e5900c9188a
:10440c008900c918374a15000d3500233448bc46bd
:10441c00270014e0d8463de00625280009b03cbc36
:10442c0090469946a246ab46f0bd0725f5e71478b1
:10443c003c19ff26267066700132aa42a3d0834233
:10444c00f5d04c1c49006346cb5a117879180b7087
:10445c001e0a4e70002b94d121000300ece703ab35
:10446c007e21197013000de003ab7e219954242397
:10447c00e95c0023202905d001339a4202d9f95c6a
:10448c002029f9d1202024e70121404608f084faa4
:10449c00051ec2d14346d969484609f025fa051ec6
:1044ac00bbd1202200214346186a0af07dfc41460c
:1044bc0024310b224346186a0af06cfc43461a6af4
:1044cc002f234146c95c173b0b40137301234a460b
:1044dc001371a2e70500a0e705009ee7211001007b
:0844ec00ffff00000cef0000cf
:020000040000fa
:1044f400f0b5d6464f464646c0b592b00500039186
:104504001700002800d1f2e03f261640320004a92b
:1045140003a8fef7c1fd041e08d000232b60200071
:1045240012b01cbc90469946a246f0bd049b05936c
:10453400039905a8fef7baff031e00d000e105aaff
:104544002f33d35c7f2b00d9e5e00123310099435d
:104554004b1e9941100007f0c1fc03001c223a4293
:1045640000d0f0e0002800d0d3e005ab9b79da0658
:1045740000d5c6e0ba0702d5db0700d5c3e03b0788
:1045840001d540231e43049b5b6b6b620d9b01931f
:10459400ab620123310099434b1e994105a807f0f2
:1045a4009df92861002800d1a3e0049b99460d9b46
:1045b40098461900484609f054ff0700a860404691
:1045c4001c300af0b1fa8046e8604b462b60db8869
:1045d400ab802e7500236b752b62ab612c339a462e
:1045e400aa4480229200002150460af0e1fbb3065f
:1045f40095d54346002b00d191e7ab614b465e89cc
:104604007602b04500d98ee0ef614346db0500d168
:1046140085e7049e390030000af0faf9002858d1e1
:1046240002246ae0042b00d088e04e4b1b68002b68
:1046340001d0122471e705a8fff7eefd002864d12c
:1046440008231e4333079ed50af0d6fd07000d9bb1
:10465400019318000e3039000af04efc0d9b0193b3
:104664001800163039000af047fc049b0d9f3900ee
:104674000193180009f0f5fe81462023fb720d9a80
:1046840002920022029901980af00df90d981c304b
:1046940000210af031fc049b01221a714a46002ac7
:1046a40000d16ee75f6b0022494605a806f0b8fc0e
:1046b400002801d0040030e73900049809f018f903
:1046c4004b46013b049a1361002800d159e70400ca
:1046d40023e743465a0a12182a6270780123514686
:1046e40009f08afd002800d119e7012405e0092416
:1046f40015e7022411e70224ef61286909f0a4f800
:104704000be7042409e7072407e7040005e7072467
:1047140003e7040001e70624ffe643469b1b984693
:104724009e4200d370e73900280003f0b9ff070068
:104734000128e0d9431cf0d10124dde71c00ece69c
:104744001c223a420cd0002b00d06be705ab9b79be
:1047540011221a42dbd17b0700d473e70824dce67c
:084764000400dae63c19002014
:020000040000fa
:10476c00f0b5d646474680b587b0049005910392c4
:10477c00029311ab1e78109b002b33d001235b42ac
:10478c00109a136008f030f9051e2bd0012e10d0b2
:10479c00022e15d0082e13d0029b002b22d0039b87
:1047ac00002b1fd00f9b002b1cd00e9b002b0dd170
:1047bc0018e00f9b002b15d00e9b002b06d111e09f
:1047cc00029b002b0ed0039b002b0bd02f683b01c0
:1047dc00db1b9b00754a92469a44504605f0b8ff85
:1047ec00002804d107b00cbc90469a46f0bd2b684b
:1047fc009c461b0162469b1a9b006c4ad3185c6a50
:10480c00186a002800d1cce0217823002c33002238
:10481c0000290ad00132904200d1c2e01c002c3396
:10482c0019002c3909780029f4d1012323700023b5
:10483c00a3622b681b061b0c614609016046091a12
:10484c0089005a484118888d00040343ff20024018
:10485c001a4322628a8d013292b2554b9a422ed063
:10486c0063461b0161465b1a9b005049cb189a8525
:10487c00059b63800e9b63600f9ba360039be360af
:10488c00029b2361049ba36100232422a354233a9b
:10489c00227763752675109b226a1a6053469b6ab1
:1048ac00002b0ed03b01db1b9b00404ad3189b6aac
:1048bc00002b56d09a6a002a4fd11a0050e00122e0
:1048cc00cee753469c623b01db1b9b00374ad31857
:1048dc005b696a6993420fd0280014303b01db1be3
:1048ec009b00324a904698444346db685b69002142
:1048fc00984743466a695a6102232377012e34d0c4
:10490c00022e40d063682269e16860883e01f61b84
:10491c00b600264dae19f668a5680095b668b04786
:10492c0000281ed101235b42109a13603b01db1b54
:10493c009b001e4ad318db681b6998472423e0545c
:10494c00e35c5a4253415a4202231340013b6375c4
:10495c0050460af01bf904e01a00936a002bfbd1b5
:10496c009462504606f09dfa3ce760883b01db1be5
:10497c009b000e4ad318db681b68a26861689847d5
:10498c000028eed1cee760883b01db1b9b00074a79
:10499c00d318db685b682269e16898470028e0d18e
:1049ac00c0e7504606f07dfa1ce7c04628170020e9
:0449bc00ffff0000f9
:020000040000fa
:1049c00061001a03e0001703f8000703ff0001006d
:1049d00078010001300132010601390110014a015c
:1049e0002e017901060180014d00430281018201ff
:1049f00082018401840186018701870189018a017e
:104a00008b018b018d018e018f019001910191012c
:104a100093019401f60196019701980198013d02d6
:104a20009b019c019d0120029f01a001a001a20108
:104a3000a201a401a401a601a701a701a901aa013d
:104a4000ab01ac01ac01ae01af01af01b101b201ec
:104a5000b301b301b501b501b701b801b801ba019d
:104a6000bb01bc01bc01be01f701c001c101c20113
:104a7000c301c401c501c401c701c801c701ca01fe
:104a8000cb01ca01cd011001dd0101008e01de0163
:104a90001201f3010300f101f401f401f80128010e
:104aa000220212013a020900652c3b023b023d0240
:104ab000662c3f0240024102410246020a015302b3
:104ac000400081018601550289018a0158028f0147
:104ad0005a0290015c025d025e025f029301610274
:104ae0006202940164026502660267029701960100
:104af0006a02622c6c026d026e029c0170027102ed
:104b00009d01730274029f01760277027802790296
:104b10007a027b027c02642c7e027f02a601810263
:104b20008202a9018402850286028702ae01440244
:104b3000b101b20145028d028e028f0290029102f4
:104b4000b7017b030300fd03fe03ff03ac03040076
:104b50008603880389038a03b1031103c203020099
:104b6000a303a303c4030803cc0303008c038e0335
:104b70008f03d8031801f2030a00f903f303f403c7
:104b8000f503f603f703f703f903fa03fa03300416
:104b9000200350041007600422018a043601c10476
:104ba0000e01cf040100c004d004440161052604b5
:044bb0000000c046fb
:020000040000fa
:104bb400f0b5de4657464e464546e0b585b004009e
:104bc400009115001e0000233360019003a907f033
:104bd400cdff824600284ad1637d9a46002b46d1f8
:104be400237d9b0700d4d5e0a3695a19934200d9c9
:104bf400dd43002d00d0a8e0237d4022134323751c
:104c040035e0e169019802f091fd0028f4d0012813
:104c140035d0431c37d0e061a368002b00d1a060dd
:104c2400237d7f2b33d8039b9b46e169180009f051
:104c3400effe00283ed040440700584b9d4253d914
:104c44006b0a99465b465b8942464a449a4202d9ba
:104c540042469b1a99465b4658784b463a0000995f
:104c640009f074f8002829d0012363759a46504648
:104c740005b03cbc90469946a246ab46f0bd022323
:104c840063759a46f3e7012363759a46efe72100bb
:104c94002c31039b58780123226a09f057f8002825
:104ca40004d1227d7f2313402375bce70123637560
:104cb4009a46dce7022363759a46d8e7236ad91b30
:104cc400494502d34b465f022be020002c304902b9
:104cd400009b9c466144802292000af05ff8227d8a
:104ce4007f2313402375ede7236a834203d0a3692e
:104cf400e268934240d32762a369d805c00d802798
:104d0400bf003f1aaf4200d92f0023002c331818dc
:104d14003a0000990af042f8227d80235b42134353
:104d24002375ed1b3368db193360009b9c46bc4440
:104d340063460093a369fb18a361e2689a4200d218
:104d44001a00e260002d00d156e7a369da05d3d139
:104d5400039a5289013a590a1140884600d05fe704
:104d6400002b00d04de7a068002800d04fe70021b9
:104d7400019802f0dbfc48e721002c315b465878af
:104d840001233a0009f038fa0028b4d001236375ee
:104d94009a466ce707239a4669e7c046ff0100007c
:020000040000fa
:104da400f0b5d6464f464646c0b582b000900c00da
:104db400914601930aab20cb1b789846002902d078
:104dc40001235b420b604b46002b4dd0002d4bd092
:104dd400009806f033ff002846d00188a4224a43f5
:104de4005e4b9b1846331b78012b3dd14346002b69
:104df40016d1c378db0737d50023019a00272e008c
:104e040092197b41a4374f43544ef61990363768b4
:104e14000026002b28d1b3421ed1ba421cd923e06c
:104e2400c3789b0720d50023019a00272e009219ee
:104e34007b41a4374f43494ef6199836376800260c
:104e4400002b11d1b34215d0a4224a43434b9b18e3
:104e540047331b78002b07d1a4224a433f4b9b18ae
:104e640074331b78012b08d002b01cbc90469946c1
:104e7400a246f0bdba42e7d9f6e7384aa426330081
:104e84004b43d318743300271f7003889a465e433c
:104e94009219136d1e00d26c9446002a56d01f78c6
:104ea40024330022002f0bd06646844630000132a2
:104eb40082424bd01e0024333778002ff7d160464e
:104ec4000123337000233362a43357467b43234fbb
:104ed400fb181f8a3f04007800023843ff273a403a
:104ee4000243f2601b8a01339bb21d4a934224d0d1
:104ef400a42052465043194a12181382009b73602f
:104f04004b463361019b7361b5614346737701235b
:104f14003372002c01d0f3682360a4234b430f4a5f
:104f24009a18506d00280ad00e4ad358002b0dd081
:104f34001a6a002a06d11a0007e00123d8e7566549
:104f440004e01a00136a002bfbd11662a423594310
:104f5400024b5918743101220a7085e7441200206b
:084f6400ffff0000981200207d
:020000040000fa
:104f6c00f0b5de4657464e464546e0b589b004914d
:104f7c0003921e00002800d0cde0684b1c686569c8
:104f8c006b1c2fd0636a1b699b68984680239b001f
:104f9c0098450ed943465f0a012f16d05f4b01226c
:104fac009a75002e00d1a1e080231b010793c14606
:104fbc0064e080239b00984507d04146180005f01b
:104fcc000dfc049b43430493464321230222e254e9
:104fdc0021001c31a3680096de68049b039a28000c
:104fec00b047e569280009b03cbc90469946a246fa
:104ffc00ab46f0bd21230222e254494b994501d81e
:10500c004b46079321001c316069a368079a0092f4
:10501c009b689b46069b4a465343424ad8472123ea
:10502c009b465b46e256022a06d1a368db6a002b3c
:10503c00f9d020699847f4e7002a0bd1434658026f
:10504c00384b9b4658446a02039909f0a3fe5b4611
:10505c00059328e0314b00229a7501256d42c1e77a
:10506c00002a3dd1761b049b9c46ac4463460493ba
:10507c006d02039b9c46ac44634603933900049d2c
:10508c00280005f0abfb06903900280005f0e2fb88
:10509c0088467b1a9a461d00b34200d93500039b03
:1050ac000593af42a6d1b24523d221230221e1546c
:1050bc0021001c316069a36801220092db689846cc
:1050cc00069b059ac047212398464346e256022a7e
:1050dc00c6d1a368db6a002bf9d020699847f4e7a6
:1050ec000e4b00229a7501256d427be70696039bb9
:1050fc0005930a4b0021997521230231e1542100bb
:10510c001c316069a36801250095dd68069b059a32
:10511c00a847e56966e701256d4263e7b8190020e9
:08512c00ff0700000000002055
:020000040000fa
:10513400f0b40125ed070f005f405ad48b4200d133
:10514400824205d950404240504059404b4059405a
:105154004e18760ddf187f0d3bd0741c640529d0e2
:10516400f41b352c26d80e0ddb022b43db0ac902b7
:105174002943c9121700202c1ed2e741e2405740b0
:10518400e3415a40a340e3405a4000248018594167
:105194000ad3b21c520521d0c207012f6241170065
:1051a4004008cb0718434908013636054208af4189
:1051b40060417141f0bc7047203c06d01f00e741bc
:1051c400e3405f400024012a6741c0186141ebd3ea
:1051d400dfe7002eeed129400020ebe70136310550
:1051e4000020e7e7e742e5d10020c143090dc904e7
:1051f400e0e76b400e00871a9e4104d26e40c01b4c
:10520400b141d21973414e18df18ac0ae642e9d213
:10521400760d7f0d31d0f41b362ccbd8b4460e0d51
:10522400db022b43db0ac9022943c90a012c32d809
:1052340004d1d4075208df073a435b08ef0a6442fb
:10524400904199411ed0002239424dd12419404148
:1052540049410124394204d10134001849413942f9
:10526400fad06246a24204d9361b013e360589199a
:10527400a0e7f10ac90700209ce736429ad1002032
:10528400002197e70200224394d0b842ded2010005
:1052940020002024e3d1202c13dd203ce241170020
:1052a400a240e2405740e3415a40a340e3405a4001
:1052b400012fbf410137174300227c42984191419d
:1052c4000ce01700e741e2405740e3415a40a34055
:1052d400e3405a407c429041994100220f0303d29b
:1052e400013e241940414941013e36054708ac417d
:0852f40050417141f0bc70470c
:020000040000fa
:1052fc0070b56c4b9b7d002b19d06b4b9c6a694b2a
:10530c005b8b9b0714d5684b2022ff2199540132eb
:10531c00fd399954644a2023d35c5bb2013300d12c
:10532c008de0614a2023d35c062b00d1a0e070bd38
:10533c005c4b5b8bdb0707d55b4b2022ff21995421
:10534c000132fd399954e5e7564b5b8b5b0707d56a
:10535c00554b2022ff2199540132fe399954d9e73b
:10536c00514a2023d35c5bb2032b47d0042b11d0c2
:10537c00022bcfd11369002b05d0908880b200216d
:10538c0007f0c0f9c6e7484b988880b2012107f0b6
:10539c00b9f9bfe7444a936912699a420dd0424a5f
:1053ac009268d05c3f4928228854591c3d4ad369e5
:1053bc00002bfcd13c4b9961ace73b4b5b69002b60
:1053cc000ed0394b9b885b0001221343354a536244
:1053dc00d369002bfcd1344a20330321d15499e7f3
:1053ec00304a5168c0239b020b435360d369002b96
:1053fc00fcd12d4a20330621d1548be72a4bd96995
:10540c005b69013b8b420cd0264ad369002bfcd143
:10541c00254bda68234d2820285c50540131d96182
:10542c0078e7204a5068e023db0203435360d369da
:10543c00002bfcd11c4a20330620d054e4e7202357
:10544c000021d154174a5168c0239b020b4353606f
:10545c00d369002bfcd1134b83221a76124b5b6a57
:10546c00002b00d163e7104b5b6a200098475ee786
:10547c001300002220215a5401315a54094b833213
:10548c001a761900533a4b8b1340102bfbd1064b59
:10549c005b6a002b00d14ae7034b5b6a20009847fc
:0c54ac0045e7c046001000429c1700209d
:020000040000fa
:1054b800f0b5de4657464e464546e0b585b0019004
:1054c8000c000391914602930f9b002b28d00123d7
:1054d8005b420f9a136007f0d5fa061e20d04b46a0
:1054e800002b24d0002c22d0378854227a435b4bdf
:1054f8009b1844331b78002b07d054227a43574b10
:105508009b181b6c019a93420ad154237b439b46f8
:10551800524b5b449a46180005f086fc00280dd1d2
:1055280005b03cbc90469946a246ab46f0bd0e9be2
:10553800002bf5d0029b002bd6d1f1e73388984693
:10554800542342465343454ad2189069d36cd169d3
:1055580000290ed000228b42a4412340dc00e4182d
:10556800a40004192578002d07d001320133914297
:10557800f1d1504606f0e8f9d2e701222270002264
:105588002262542142465143344a5118888c0004ff
:10559800327812020243ff2018400243e261898cec
:1055a800013189b22e4a91421dd0542042465043bf
:1055b8002a4a121891840133d364029b6360039bc7
:1055c800a3600123637500232375019ba361b3695d
:1055d800002b0ad0082b1dd84b465d00e5600e9bba
:1055e8005b00236105e00121dfe74b46e3600e9b8a
:1055f80023610f9be2691a6053461b6a002b10d087
:10560800164b5b441b6a002b23d01a6a002a1cd154
:105618001a001de04b469b00e3600e9b9b00236134
:10562800e7e753461c6202236375200003f058fa2b
:1056380023696268e168a06854257d43074c6419b2
:1056480064696468a04704e01a00136a002bfbd160
:105658001462504606f078f962e7c046001600204a
:04566800ffff000040
:020000040000fa
:10566c00f0b5de4657464e464546e0b58bb0069043
:10567c000e000592049309aa012107f06dfc002885
:10568c0000d098e0099a01925f4b10259a4200d8fd
:10569c0093e05e4c2900019805f0a0f8a0421cd9bb
:1056ac006d00edb2002df5d1802292000021049cfa
:1056bc00200009f079fbbf34ff34ff2302936421ef
:1056cc00019805f08bf80790b146049bff2252001d
:1056dc009446634498463f255fe0029580229200f1
:1056ec000021049c200009f05ffbbf34ff34e6e787
:1056fc00019e59e0019b5e1b002e6dd020000830ee
:10570c00290009f0f5fb20000c30310009f0f0fb0a
:10571c00059b23713f21280005f060f807000299d2
:10572c0005f05cf883460299380005f093f8617037
:10573c005b469f083f239a469f433f21280005f074
:10574c0089f801310f43a7705b46e370ad196b1eee
:10575c003f210393180005f041f80700029905f06a
:10576c003df806000299380005f074f86171b7082d
:10577c00524697433f21039805f06cf801310f43d3
:10578c00a771e6711034444526d0002d24d0042393
:10579c009c46e144019b9d421ed24b461e68642ee2
:1057ac0002d8a5d0079b5e437319019a9342a1d8e6
:1057bc00ab42a1d29ee701201fe080229200002183
:1057cc00049c200009f0f0fabf34ff340823029344
:1057dc00019b3f2b00d972e7ff235b0055220499f4
:1057ec00ca540b4b5532ca54ff3bff3b0022069860
:1057fc0008f0a8fa431e9841c0b20bb03cbc9046ce
:10580c009946a246ab46f0bdf7e107003efc00000e
:04581c00ff01000088
:020000040000fa
:10582000f0b5de4657464e464546e0b587b0040023
:105830000f0015009a46002352461360029005a9f6
:1058400007f096f90190002800d09ee0637d019357
:10585000002b00d099e0237d01221a40039200d151
:10586000b3e0e368a2699e1aae4200d92e00002e72
:1058700054d18ae0e169029802f014ff5be0022350
:105880006375019381e001236375039b01937ce0c1
:1058900002236375019378e0237d7f2b02d85b465a
:1058a0005d022ee0236a581b5845f8d24002381892
:1058b00021002c318022920009f072faefe7226a6f
:1058c00082420dd0237d7f2b67d821002c31059b90
:1058d000587801232a0008f091fc002800d06fe0de
:1058e0002562a369d905c90d8025ad006d1ab542a1
:1058f00000d9350023002c3359182a00380009f04c
:105900004ffa761b53461b685b19524613607f198a
:10591000a3699c466544a561002e36d0a369da05cb
:10592000dfd1059a5289013a590a1140884607d1b8
:10593000002b9fd1a0680128a1d9431ca3d0e0610e
:10594000059b9946e169180009f064f800289fd08a
:10595000404405001e4b9e42b1d9730a9b464b46fc
:105960005b8942465a449a4202d942469b1a9b4658
:105970004b4658785b462a00390008f03ffc002867
:105980008ad001236375039b0193019807b03cbc47
:1059900090469946a246ab46f0bd21002c314b46bd
:1059a0005878012308f0d4f9002804d1227d7f2300
:1059b0001340237589e701236375039b0193e4e793
:1059c00001236375039b0193dfe707230193dce762
:0459d000ff010000d3
:020000040000fa
:1059d400f0b5de4657464e464546e0b587b004006e
:1059e40003680193002103f02dfe051e00d0a8e0fa
:1059f40001235b4223630133ff339946ff27013bb5
:105a0400ff3b984609e043462363ff27002120001b
